:100000000C942A000C94C2010C94C2010C94C201FD
:100010000C94C2010C94C2010C94C2010C94C20154
:100020000C94C2010C94C2010C94C2010C94C20144
:100030000C94C2010C94C2010C94C2010C94C20134
:100040000C94C2010C94C2010C94C2010C94C20124
:100050000C94C20111241FBECFE5D8E0DEBFCDBF96
:0C0060000E9436000C943400F894FFCF8E
:10006C0061E083E090E00E946B0161E082E090E04F
:10007C000E946B0163E082E090E00E946B0163E000
:10008C0087E090E00E946B0164E083E090E00E94C6
:10009C006B0162E080E090E00E94E90062E084E0A5
:1000AC0090E00E94E90064E082E090E00E94E900A8
:1000BC0080E090E00E94AA01892B59F061E083E076
:1000CC0090E00E942C0164E083E090E00E942C01FF
:1000DC000AC061E083E090E00E94A60064E083E047
:1000EC0090E00E94A60084E090E00E94AA01892B77
:1000FC0059F061E082E090E00E942C0163E082E024
:10010C0090E00E942C010AC061E082E090E00E9425
:10011C00A60063E082E090E00E94A60082E090E0FE
:10012C000E94B601892B31F063E087E090E00E94D9
:10013C002C01BECF63E087E090E00E94A600B8CF10
:10014C006230B9F018F4613031F008956330F9F091
:10015C00643059F108954BB321E030E0B90102C08D
:10016C00660F771F8A95E2F7CB01809584238BBBB2
:10017C00089548B321E030E0B90102C0660F771F43
:10018C008A95E2F7CB018095842388BB089545B30B
:10019C0021E030E0B90102C0660F771F8A95E2F7C3
:1001AC00CB018095842385BB089542B321E030E0D8
:1001BC00B90102C0660F771F8A95E2F7CB018095D3
:0601CC00842382BB0895AC
:1001D2006230B9F018F4613031F008956330F9F00B
:1001E200643059F108954AB321E030E0B90102C008
:1001F200660F771F8A95E2F7CB01809584238ABB2D
:10020200089547B321E030E0B90102C0660F771FBD
:100212008A95E2F7CB018095842387BB089544B386
:1002220021E030E0B90102C0660F771F8A95E2F73C
:10023200CB018095842384BB089541B321E030E053
:10024200B90102C0660F771F8A95E2F7CB0180954C
:06025200842381BB089526
:100258006230B1F018F4613031F008956330E9F09C
:10026800643041F108954BB321E030E0B90102C098
:10027800660F771F8A95E2F7CB01842B8BBB089515
:1002880048B321E030E0B90102C0660F771F8A95B4
:10029800E2F7CB01842B88BB089545B321E030E019
:1002A800B90102C0660F771F8A95E2F7CB01842B4C
:1002B80085BB089542B321E030E0B90102C0660F62
:0E02C800771F8A95E2F7CB01842B82BB089545
:1002D6006230B1F018F4613031F008956330E9F01E
:1002E600643041F108954AB321E030E0B90102C01B
:1002F600660F771F8A95E2F7CB01842B8ABB089598
:1003060047B321E030E0B90102C0660F771F8A9536
:10031600E2F7CB01842B87BB089544B321E030E09C
:10032600B90102C0660F771F8A95E2F7CB01842BCD
:1003360084BB089541B321E030E0B90102C0660FE5
:0E034600771F8A95E2F7CB01842B81BB0895C7
:1003540026B330E0A90102C0559547958A95E2F786
:08036400CA0181709927089578
:10036C0020B330E0A90102C0559547958A95E2F774
:08037C00CA0181709927089560
:040384000C940000D5
:00000001FF
